:100000008031062895130800803109008D31952D27
:1000100020004203031D0D280E28222840081F3906
:100020000038031D142815282228DC174108033A3C
:10003000031D1B281C2820282100E201E20A222897
:100040002100E20120004208031D27282828152945
:1000500040081F39023A031D2E282F28152944086D
:100060000F39003A031935283628152944080F3965
:10007000FA0002307A0203183E283F281529550855
:10008000203A031D442845281529DC17C41B49289C
:100090004A285A2844080F39E03E860087010108A3
:1000A000EA0044080F39283E860001308700010825
:1000B000E900692844080F39523E8600870101088B
:1000C000EA0044080F39263E860001308700010807
:1000D000E90069186C286D286F286A1170286A1564
:1000E000C41B732874287C2844080F39E03E86001E
:1000F00087016A088100832844080F39523E860030
:1001000087016A0881004108033A031D882889286D
:10011000AC286A0886008701811F8F289028A328B1
:10012000C41B932894289C2844080F39283E860035
:10013000013087008114A32844080F39263E860029
:100140000130870081146A088600870101156A085A
:1001500086008701811715290430EA066A0886009F
:100160008701811FB428B528C9286A08860087013D
:1001700081136A088600870101170530E200E30158
:100180006A08E400E501E50AE6018E31A726803120
:10019000CD286A0886008701011704302000EA068E
:1001A000E918D328D428DB286A0886008701811F34
:1001B000DA28DB28FF28C41BDE28DF28E7284408CC
:1001C0000F39283E8600013087008110EE28440850
:1001D0000F39263E86000130870081106A088600AC
:1001E00087013B3081050530E200E3016A08E40045
:1001F000E501E50AE6018E31A726803104296A0867
:10020000860087013B308105200044080F39983E65
:10021000FA00FB010E30FB3D7A08E7007B08E8009E
:100220006708860068088700011008002000D508CC
:10023000031D1B291C292E293D008E019201163019
:1002400091009F3097007B30920027298E158E1DDC
:100250002A292B2926292000D501D50A5503031D5B
:10026000322933293F293D008E1A372938293F2961
:10027000900192011214121602302000D5003D00A8
:10028000101D432944294C29121D472948294C296E
:1002900010118D31642581313D008E1C502951296A
:1002A0005429200012110A2A101C572958296329A1
:1002B000121C5B295C2963298331F02381310430CE
:1002C000D5003D001010101E662967296E29121EE8
:1002D0006A296B296E298C31E12481313D00101F80
:1002E000722973299529121F76297729822973305B
:1002F0002000E200E301E401E501E50AE6018E31B8
:10030000A72681313D0010138C31D1248131210089
:100310006908031D8C298D29E903E908031D91292A
:100320009229952986312C2681313D00901E9929EC
:100330009A29A129921E9D299E29A1298D31CD2579
:100340008131901CA429A529B729921CA829A92983
:10035000B729FF302000E2007F30E300E401E5012F
:10036000E50AE6018E31A72681313D009301043074
:10037000200055020318BD29BE29BF2951293D007F
:10038000921DC329C42951292000EF013D00901D71
:10039000CA29CB2951290F082000E100610CEE0089
:1003A000EE0C6E0C0F392100EC003D009011200086
:1003B0006119DB29DC29E52921006C08283E86002B
:1003C0000130870001308106ED2921006C08263EAE
:1003D00086000130870001308106EC08031DF129F9
:1003E000F229F6298531CA258131012A723020008F
:1003F000E200E3016130E400E501E6018E31A72669
:1004000081312000EF0A04306F02031C082A092AF8
:10041000C629512908000034D5347534A934103464
:100420000934023465340034023401340034C034F9
:1004300032340934043400340034003401340134DB
:1004400000340034093424340134003401340934D4
:1004500000340134013409340434013400340234EA
:1004600001340334003400340734243401340034BC
:10047000013441340034063424340234013401346C
:100480000034063424340234023402340034093493
:10049000243403340134033401340234013400348D
:1004A0000934243403340234043401340134013473
:1004B000003409340534013402344034003400344B
:1004C0000034003405342534013401340134093456
:1004D00005348134023440340034003400340034B4
:1004E00005342534013401340334343403344D34B9
:1004F00000346934003463340034723400346F34AF
:1005000000346334003468340034693400347034A7
:1005100000342034003454340034653400346334FF
:100520000034683400346E3400346F3400346C347A
:1005300000346F34003467340034793400342034AC
:100540000034493400346E340034633400342E34C3
:1005500000341A3403344D34003449340034443404
:1005600000344934003420340034453400347834C5
:100570000034613400346D340034703400346C3431
:100580000034653400341234013400340234003451
:10059000003400340834D83404345934003402347C
:1005A0000034013402340034013404340334093497
:1005B00004340034580886008701413FF50075086F
:1005C000F200F301730822002402031DE92A7208D5
:1005D00023020318EC2AED2AEF2A2308F5007508F8
:1005E000A302031CA403F401002B2008860087014A
:1005F0007408483E8400850100088100A00AF40ABE
:1006000075087402031C052B062BF52A0330203EC7
:10061000860001308700160001040319102B112BEE
:100620003E2B2000590A860087010830810048309F
:10063000F2000030F3005908023E8600870172087C
:10064000C03F7308C13F580886008701011B292B52
:100650002A2B342B5908860087014830810059081D
:100660008600870181176B2B5908860087010830A7
:10067000810059088600870181176B2B2000590AD9
:1006800086008701083081004030F2000030F3001E
:100690005908023E860087017208C03F7308C13FB7
:1006A00059088600870104308100590886008701B7
:1006B000811722002508031D5E2B612B250883313D
:1006C000602BA2132000D408031D672B682B6B2B13
:1006D00086312C26823108003D000E122000DC1BE2
:1006E000722B732BAD2B2200A21F772B782B882B1C
:1006F00002302000D7002100E508031D802B812B4C
:10070000842B8F31B42783312100E801E701EF2BDF
:100710002000590A86008701083081004030F3002C
:100720000030F4005908023E860087017308C03F7C
:100730007408C13F5908860087010C3081005908B0
:1007400086008701811752088600870104308100E6
:100750005208860087018117EF2BC01FB02BB12BE9
:10076000C92BD701D70A2100E408031DB82BB92BE8
:10077000BC2B8F31B42783312100E801E701200031
:10078000D408031DC42BC52BEF2B86312C268331B7
:10079000EF2B0230D700590A86008701083081000C
:1007A0004030F3000030F4005908023E8600870113
:1007B0007308C03F7408C13F5908860087010430A0
:1007C000810059088600870181172100E801E701AF
:1007D0002000D408031DED2BEE2BEF2BC52B0800BA
:1007E000210012113D009301900198010E30F30099
:1007F0009930F200F40172088600730887008101C5
:10080000F20A0319F30AF40A7408031D082CFB2BDF
:1008100016303D0091009F3097007B309200F5012B
:10082000750809070907203E860087010030C03F90
:100830000030C13FC23FC33FF50A08307502031CB8
:10084000222C232C102C3D000E1796010E120E1395
:1008500090112000DC012200A201A301A4013D00AF
:100860009019332C342C282C01302100E700013062
:10087000E800E401E501E301F5017508523E860058
:10088000870181017508E03E8600870181017508B6
:10089000263E86000130870081017508283E8600CB
:1008A000013087008101F50A02307502031C592CC2
:1008B0005A2C3D2C28302000D20016303D009800E4
:1008C0004030F0000030F10070082000A2007108F4
:1008D000A3000830A1000430A000A017DF0122000F
:1008E000AB012000D501080047302100EA0040306C
:1008F000EB0020005608F1009030F2004730F30082
:100900004030F40080308E31DF2684312000560ADA
:100910008038D6000B30FA002630F9006630F80037
:10092000F80B902CF90B902CFA0B902C972C47304D
:100930002100EA00EB0120005608F1009030F2009F
:100940004730F300F40180308E31DF2684312000FF
:10095000560A8038D6000B30FA002630F90066308F
:10096000F800F80BB12CF90BB12CFA0BB12CB82C08
:1009700020005508203A0319BE2CBF2CC42C3D0082
:100980008E1CC32CC42CF42C21006608031DC92C1A
:10099000D22C660886008701010D010D0139FB008C
:1009A000FC01D42CFB01FC017C087B04031DD92C29
:1009B000DA2CE62CF001A030F1000030F2004030DB
:1009C000F30001308F3168278431E600F001F00A2E
:1009D000A030F1000130F2000430F30001308F311B
:1009E000682784312200AC00080052088600870185
:1009F0000030011B0130F3000430D2065508083ADC
:100A0000031D032D042D132D42087F393D00960050
:100A10001608031D0C2D102D10302000D500132DAD
:100A200004302000D5005703031D172D182D542D19
:100A30004830F1000030F2005208023E8600870183
:100A40007108C03F7208C13F8631EC268431210015
:100A50006F08023A031D2D2D2E2D392D200052082E
:100A600086008701043081005208860087018117C3
:100A7000632DF308031D3D2D3E2D492D2000520806
:100A8000860087014830810052088600870181175F
:100A9000632D20005208860087010830810052082B
:100AA000860087018117632D2200A21F582D592D22
:100AB000612D2508031D5D2D602D250885315F2DD5
:100AC000A2132000D701080020004008803A031D2F
:100AD0006A2D6B2DC92DC030DC00BE2DC330DA006D
:100AE0008230DB001230DD00DE01C92D4208031D1B
:100AF0007A2D7B2DA22D0F30840082308500420894
:100B000084070318850A003FDA008230DB005B08A7
:100B1000F1005A08F00002307007840071080318D1
:100B2000710A85000008DD005B08F1005A08F0003A
:100B300003307007840071080318710A85000008EB
:100B4000DE00C92DDC01C92D033042020318A92D96
:100B5000AA2DA22D0C308400823085004208840723
:100B60000318850A003FDA008230DB005A0884004F
:100B70005B0885000008DD00DE01C92D4308013A4D
:100B800003196E2D033A0319762D013A0319A42D8A
:100B9000A22D08002D30E90020006108FD39031D59
:100BA000D22DD32D1F2E61363F3909070907203E6C
:100BB000D8005808D9000430D906580886008701A3
:100BC000010C890C0F390D3A031DE72DE82D1B2E62
:100BD000ED016D08403E860087015808023E840002
:100BE0008501003FEB00013FEC006B0884006C08BE
:100BF0008500000881005808023E86008701013008
:100C0000810741310318810AED0A08306D02031C87
:100C10000A2E0B2EE92D4030EB000030EC00580876
:100C2000023E860087016B08C03F6C08C13F8E31D1
:100C3000742685312B2E8E31452685312B2EFD30A5
:100C40006105EB006B08043A031D272E282E2B2E7E
:100C50008431F524853108002100E708031D312E79
:100C6000322E8D2E0130E700E808031D382E392E74
:100C70008D2E0130E80020005708023A031D412E56
:100C8000422E502E520A86008701810152088600AA
:100C900087014830810052088600870181178D2E18
:100CA0005703031D542E552E8D2E2200AA0120001D
:100CB000580A86008701083081004030F00000307B
:100CC000F1005808023E860087017008C03F710895
:100CD000C13F58088600870104308100580886000B
:100CE000870181172200AA01AA0A2000590A86005A
:100CF0008701083081004030F0000030F1005908D1
:100D0000023E860087017008C03F7108C13F590844
:100D100086008701803081008D2E08002000DC17BE
:100D20000E30FB009930FA00FC017A0886007B083F
:100D300087008101FA0A0319FB0AFC0A7C08031DDB
:100D4000A22E952EF001F1012030F200F3012030A7
:100D50008D31362586313D000E17FD017D08263E7A
:100D600086000130870081017D08283E8600013021
:100D700087008101FD0A02307D02031CC02EC12EB6
:100D8000AE2EF001F101F201F20AF30160308D3173
:100D9000362586313D000E1328302000D200203049
:100DA000D8005808D9004208DF00DF08031DD92EFB
:100DB000DA2EDD2E1030D500EB2EE201E20AE3013F
:100DC0005F30E400E501E50AE6018E31A7268631B1
:100DD00020302000D50008000830F00000305E020E
:100DE000083003195D020318F62EF72E092F5D084F
:100DF000F0002100EF08031DFE2EFF2E022FEF0151
:100E0000EF0A092F6F03031D062F072F092F02304A
:100E1000EF0070082000DD02031CDE03520A86008A
:100E200087017008810048302100EE0020005C1826
:100E30001A2F1B2F442F2D2F21006E0886008701AB
:100E400020005A0884005B08850000088100DA0A47
:100E50000319DB0A2100EE0AF003F008031D312F0D
:100E6000322F1C2F492F21006E0886008701200099
:100E70005A0884005B08850000088100DA0A03191B
:100E8000DB0A2100EE0AF003F008031D482F492F6A
:100E9000332F08003D008E1C4E2F4F2F992F01300D
:100EA0008D310A258731A32F50035104031D592F7B
:100EB0005A2F5F2F01308D31202587319F2F500809
:100EC0004B3A5104031D652F662F6B2F01308D3176
:100ED0000A2587319F2F00305102973003195002A5
:100EE000031C732F742F772FD001D1019F2F9F2FB9
:100EF00050035104031D7D2F7E2F832F01308D3130
:100F0000202587319F2F5008323A5104031D892F25
:100F10008A2F8F2F01308D310A2587319F2F033083
:100F20005102B73003195002031C972F982F9F2F9F
:100F3000742F20005508203A0319542F782F2000D1
:100F4000D00A0319D10A08002000C8010030C900E6
:100F5000DA2FDC1721006203031DAF2FB02FE62F1D
:100F60002000C814E62FDC17E62FDC17C41BB92FAE
:100F7000BA2FC22F44080F39E03E860087010108CE
:100F8000F000C92F44080F39523E8600870101083E
:100F9000F000700886008701811FCF2FD02FE62F29
:100FA000700886008701011DD62FD72FE62F01304C
:100FB000C800E62F40081F39003A0319A92F013A4B
:100FC0000319B32F033A0319B52FE62F2000DC1FB6
:100FD000EA2FEB2FF22F4830DA000030DB005C14F0
:100FE0000230DD000800F00024001108951370089D
:0E0FF0009100141CFC2FFD2FF92F1108080092
:101000008F313D2F8F31412F8F31672F8F31412FFE
:101010008F31672F8F31282F8F312C2F8F31532F06
:101020008F31342F8F31302F8F31452F8F314B2F10
:101030008F31672F8D31352D8D31222D8D31252D1D
:101040008D31222D8D31282D8D311F2D8D310C2D7F
:101050008D310F2D8D310C2D8D31122D8D31092DAE
:101060008C31F62C8C31F92C8C31F62C8C31FC2CFB
:1019480015130800150D150D013908002400940120
:1019580035309500970108002400150E890C890C74
:1019680001390800640080010131890BB72C00346B
:1019780021000D168D160D178D138E1308008C314E
:10198800BC248C318C31AA248C31080021006D08CC
:10199800031DCF2CD02CED0308002100E308031D04
:1019A800D62CD72CE02C2200AB0AAB08031DDD2C6B
:1019B800DE2CE02CFF30AB000800121510128E143C
:1019C8002100E301E30A2200AB0175302000E200A8
:1019D800E301E401E501E6018E31A7268C31080018
:1019E800F000FF2C21000E11092D21008E10092D69
:1019F80021008E11092D7008840005300402031897
:101A0800092D883104352E3E82000800F000152D7E
:101A180022000E111F2D22008E101F2D22008E1164
:101A28001F2D700884000530040203181F2D88310B
:101A38000435243E82000800F0002B2D22000E15EC
:101A4800352D22008E14352D22008E15352D700867
:101A58008400053004020318352D883104351A3EF8
:101A680082000800F4007408F500402D750886000F
:101A7800870170088100F50A0130F2020030F33B5B
:101A8800720A0319730A031D4A2D4B2D3A2D0800BB
:101A98002200AC012100E601ED011E30F400013006
:101AA8008D31F1258D31F001A030F1000030F200C8
:101AB8004030F30001308F3168278D31E60008008F
:101AC8002100E30174302000E200E301E401E501B4
:101AD800E6018E31A7268D313D008E101211752D2D
:101AE80010111019782D792D742D2200AB010800E2
:101AF800F100892DFC3021009900903027009B00CF
:101B080001308C31F4248D31942D7108003A031979
:101B18007E2D013A0319942D033A0319942D942D1F
:101B28000800503084000030850012308C31B62413
:101B38008D31E03084000030850010308C31B624BF
:101B48008D3120308400013085000D308C31B62471
:101B58008D3120008D31B02D00308D317C258D31B7
:101B68008331F0238D318C31C3248D31640084316D
:101B780074248D31813116218D312030550203189E
:101B8800C62DC72DC82DBA2D3D000E08BA2D80319F
:101B98000628181CD02DD12DEF2D200058088600BE
:101BA80087010108803A031DDA2DDB2DED2D52083F
:101BB800860087010108843A031DE32DE42DED2DED
:101BC8005808860087010C30810058088600870174
:101BD80081173D00181090120800F900741DF52DAA
:101BE800F62DFB2DF00179088E3118268D31F41C65
:101BF800FE2DFF2D052EF001F00A79088E311826EA
:101C08008D317908983EF500F6010E30F63D7508DD
:101C1800F7007608F8007408F50077088600780859
:101C28008700750881000800F2002030F300700872
:101C3800F100F13572080907090771070907090753
:101C4800F3077308860087018113F008031D2D2E02
:101C58002E2E352E7208E03E86008701730881001B
:101C68003B2E7208523E8600870173088100730874
:101C78008600870101137308043E86008701011757
:101C880008005708023A031D4A2E4B2E4F2E823168
:101C9800DA228E31732ED7012200AA08031D552E91
:101CA800562E722E2000590A8600870108308100BE
:101CB8004030F6000030F7005908023E86008701E0
:101CC8007608C03F7708C13F5908860087010C3065
:101CD80081005908860087018117732EAA01080020
:101CE8002100EF012000D4012100E401E5012200D8
:101CF800AA012000D7015208860087018113043009
:101D0800D20652088600870181130430D20659088A
:101D1800860087018113DC01DD01DE012200A201BA
:101D2800A301A4018F311E278E3103302000E20069
:101D3800E301E401E501E6018E31A7268E31833106
:101D48006C238E310800B72E87314A278E318C31AB
:101D5800CA248E31DE2E87314A278E31DE2E8D3110
:101D68004C258E31DE2E6308003A0319BF2E7F3AC8
:101D78000319D92EDE2E6208013A0319B32E033A4D
:101D88000319DE2E013A0319DE2E063A0319DE2E58
:101D9800773A0319DE2E013A0319A82E073A0319D8
:101DA800AF2E013A0319AF2EDE2E6208FF3A03194F
:101DB800DE2EDE2E0800F5000A30F6008C31B02445
:101DC8008E31003A0319E92EEA2EED2E8C31A42427
:101DD8008E318C31A6248E31003A0319F42EF52E5B
:101DE800F82E803102208E3122008D178D132000AD
:101DF8008D1EFF2E002F052FF608031D042F052F1B
:101E0800FB2E8D1A082F092F1D2F75088731F327F0
:101E18008E3171088731F3278E3172088731F327A5
:101E28008E3173088731F3278E3174088731F32791
:101E38008E3108002000400E890C0339003A03193E
:101E4800262F272F5D2F672FDC170830D500672F27
:101E5800853164258F31672F86318E268F31672F24
:101E68005F30DA000030DB005C14DD01DD0ADC17CE
:101E7800672F8731A4278F31672F803108208F3152
:101E8800672F4408603EDA000030DB00382FDC178B
:101E98004408603E8600870142088100672F0230AF
:101EA800E200E301E401E501E6018E31A7268F3166
:101EB800672F410884000D3004020318672F88310A
:101EC8000435003E82000800F6007008031D6D2FDF
:101ED800742F7608523E860087010108F7007A2F92
:101EE8007608E03E860087010108F700F708031D21
:101EF8007E2F7F2F812F0030B32FFF307105F40024
:101F08007F307205F5007708023E86008701740865
:101F1800C03F7508C13F770A8600870173088100B2
:101F28007708860087014030810577088600870199
:101F3800811577088600870181177008031DA52F72
:101F4800AC2F7608523E8600870104308106B22FF6
:101F58007608E03E8600870104308106770808008D
:101F6800E401E50120005708023A031DBC2FBD2FEC
:101F7800D82F590A86008701083081004830F100BF
:101F88000030F2005908023E860087017108C03F00
:101F98007208C13F590886008701483081005908F6
:101FA800860087018117FF2F5E084702031DDE2F79
:101FB8005D0846020318E12FE22FE62F4708DE00EE
:101FC8004608DD008631EC268F314830F1000030BC
:101FD800F20020005208023E860087017108C03FC7
:101FE8007208C13F520886008701483081005208B4
:081FF800860087018117080033
:020000040001F9
:04000E00FCCFCFDF75
:00000001FF
